:020000040800F2
:10000000A84E0020610200084B17000817160008D0
:100010004917000891030008251C00080000000093
:10002000000000000000000000000000A101000826
:100030005104000800000000FD01000895170008A9
:100040007B0200087B0200087B0200087B0200089C
:100050007B0200087B0200087B0200087B0200088C
:100060007B0200087B0200087B0200087B0200087C
:100070007B0200087B0200087B0200087B0200086C
:100080007B0200087B0200087B0200087B0200085C
:100090007B0200087B0200087B0200087B0200084C
:1000A0007B0200087B0200087B0200087B0200083C
:1000B0007B0200087B020008611800087B02000830
:1000C0007B0200087B0200087B0200087B0200081C
:1000D0007B020008191C00087B0200087B02000854
:1000E0007B0200087B0200087B0200087B020008FC
:1000F0007B0200087B0200087B0200087B020008EC
:100100007B0200087B0200087B0200087B020008DB
:100110007B0200087B0200087B0200087B020008CB
:100120007B0200087B020008950300087B020008A0
:100130007B0200087B0200087B0200087B020008AB
:100140007B0200087B0200087B0200087B0200089B
:100150007B0200087B020008A10300087B02000864
:100160007B0200087B0200087B0200087B0200087B
:100170007B0200087B0200087B02000800000000F0
:100180007B0200087B020008DFF810D000F0EEF8D8
:1001900000480047651C0008AFF30080A84E00200F
:1001A0002C4B19680868B0E8F04F80F30988BFF35A
:1001B0006F8F4FF0000080F311887047000000003F
:1001C00008480068006880F308884FF0000080F35A
:1001D000148862B661B6BFF34F8FBFF36F8F00DF35
:1001E00000BF00BF08ED00E0DFF80C00016841F43B
:1001F00070010160704700BF88ED00E0EFF30980F7
:10020000BFF36F8F134B1A681EF0100F08BF20ED5D
:10021000108A20E9F04F106009B44FF0500080F3CD
:100220001188BFF34F8FBFF36F8F02F0DBFB4FF0EE
:10023000000080F3118809BC19680868B0E8F04F25
:100240001EF0100F08BFB0EC108A80F30988BFF3CE
:100250006F8F70471C000020EFF30580704700008F
:100260000648804706480047FEE7FEE7FEE7FEE750
:10027000FEE7FEE7FEE7FEE7FEE7FEE745180008BB
:10028000890100082DE9F05F0546002092469B4653
:1002900088460646814640241BE02846414647469C
:1002A000224600F053F853465A46C01A914110D3E3
:1002B00011461846224600F03AF82D1A67EB01085D
:1002C0004F4622460120002100F031F817EB0009CB
:1002D0004E41201EA4F10104DFDC484631462A4687
:1002E0004346BDE8F09F40EA01039B0703D009E0C5
:1002F00008C9121F08C0042AFAD203E011F8013B12
:1003000000F8013B521EF9D27047D2B201E000F86A
:10031000012B491EFBD270470022F6E710B51346A9
:100320000A4604461946FFF7F0FF204610BD202A72
:1003300004DB203A00FA02F1002070479140C2F13C
:10034000200320FA03F3194390407047202A04DB6E
:10035000203A21FA02F00021704721FA02F3D0403E
:10036000C2F120029140084319467047064C074DE0
:1003700006E0E06840F0010394E807009847103475
:10038000AC42F6D3FFF704FFA0340008C0340008E5
:10039000FEE70000014800F0B9B80000D4000020DA
:1003A000014800F0B3B800003401002001681823B0
:1003B000CAB2103AB2FBF3F2054B6FF30901032AFC
:1003C0009B5CC36500D9091D816508467047000024
:1003D0006634000810B5014600208B698A6A4FF028
:1003E000C07453B1B3F5005F15D072B1012A0CD0BF
:1003F000022A0AD0032A09D104E01AB1012A06D040
:10040000022A03D1C96AC90100D5012010BDC96AF9
:10041000A142FAD010BD002AF7D0012AF2D0022A58
:10042000F3D0032AF3D010BD30B50468256825F455
:1004300080252560046863608368402B036803D0CF
:1004400099600068C26030BD9A600068C16030BDCC
:10045000704770472DE9F0410446876D00F0B0FA0F
:10046000064694F835000025022806D080206065F5
:1004700084F834500120BDE8F0812068016821F043
:10048000160101602068416921F080014161206C02
:1004900008B9A06C20B12068016821F00801016052
:1004A0002068016821F0010101600BE000F088FA8A
:1004B000801B052806D92020606504F8345F0320DE
:1004C0006070D8E720680068C007EFD194F85C102E
:1004D0003F208840B86004F8345F0120607000203D
:1004E000C9E790F83510022903D080214165012029
:1004F0007047052180F835100068016821F001017E
:10050000016000207047406D704700002DE9F843FE
:1005100004464FF00009CDF8009063484FF416519F
:10052000A56D0068B0FBF1F72E6894F85C10082008
:1005300000FA01F131420FD021680A6852070BD549
:100540000A6822F004020A6094F85C108840A860EF
:10055000606D40F00100606594F85C104FF0010898
:1005600008FA01F0304208D021684969090604D52B
:10057000A860606D40F00200606594F85C10042093
:100580008840304208D021680968890704D5A860EE
:10059000606D40F00400606594F85C1010208840A5
:1005A000304218D021680968090714D5A86020686E
:1005B0000168490304D50068000308D5A16C07E071
:1005C0000168C90503D4016821F008010160216CAC
:1005D00009B12046884794F85C10202088403042BA
:1005E00031D021680968C9062DD5A86094F8350076
:1005F00005282068016806D0490347D50068000334
:100600001DD4616C1CE021F0160101602068416975
:1006100021F080014161206C08B9A06C20B12068F4
:10062000016821F00801016094F85C103F208840C7
:10063000A86084F8349084F83580216D1FE0E16B68
:1006400009B120468847606D00282BD0606DC00737
:1006500014D0052084F835002068016821F00101DC
:1006600001600098401C0090B84203D820680068E0
:10067000C007F6D184F8349084F83580E16C002905
:1006800010D001B02046BDE8F04308470168C90515
:10069000D5D4016821F01001016084F8349084F809
:1006A0003580CCE7BDE8F883180000202DE9F04143
:1006B000044600F085F906465CB1002584F8345004
:1006C000022084F835002068016821F001010160F2
:1006D0000DE00120BDE8F08100F072F9801B0528D3
:1006E00005D920206065032084F83500F2E72068F2
:1006F0000068C007F0D12268116820480140D4E9A1
:1007000001031843D4E9033633431843636918439C
:10071000A3691843E3691843236A18430843616ACD
:10072000042903D1D4E90B1319430843106020684E
:100730004069666A20F0070130460E43012704280D
:100740000CD1A06A0643E06A40B12046FFF742FEA2
:1007500020B14020606584F83570BAE720684661B2
:100760002046FFF723FE94F85C203F2191408160F2
:10077000656584F835700020ACE700003F8010F01C
:100780002DE9F0410446866D90F8340000250128DB
:100790000DD0012084F8340094F835700020012F2A
:1007A00007D084F8340002252846BDE8F0810220F5
:1007B000FBE7022784F8357060652046FFF734FEBA
:1007C00094F85C103F208840B0602068016841F0D8
:1007D00016010160206C20B12068016841F0080119
:1007E00001602068016841F001010160DCE7000060
:1007F0002DE9F84F00224FF0010803254FF00F0EAE
:100800000B6808FA02F42340A3426ED14E68012E11
:1008100005D0022E03D0112E01D0122E12D18668DF
:100820004FEA420C05FA0CF7BE43CF6807FA0CF703
:10083000374387604668A6430C79C4F3001494409C
:1008400034434460C668570005FA07FC8C6826EA02
:100850000C06BC403443C4604C68022C01D0122CFE
:1008600013D1D40800EB8404A346D4F82090540795
:100870004FEAD46A0EFA0AF629EA06090E6906FA60
:100880000AF646EA0906CBF8206006680C7926EAE3
:100890000C0604F00304BC40344304604C68E400DC
:1008A00065D5364C266846F480462660246822F0DA
:1008B000030604F480440094314C3444A446D4F834
:1008C00008489607370F0EFA07F6B4432D4EB0428C
:1008D00001D1002624E02C4EB04201D101261FE0B8
:1008E0002A4EB04202D102261AE040E0284EB04221
:1008F00001D1032614E0274EB04201D104260FE0B7
:10090000254EB04201D105260AE0244EB04201D165
:10091000062605E0224EB04201D1072600E0082657
:10092000BE402643CCF808681E4E34684F689C438E
:10093000FF0300D51C4334601A4C241D26684F6801
:100940009E43BF0300D51E432660164E083634680A
:100950004F689C43FF0200D51C433460114E0C3697
:1009600034684F689C43BF0200D51C433460521C5E
:10097000102AFFF445AFBDE8F88F0000443802406C
:100980000030014000000240000402400008024024
:10099000000C024000100240001402400018024007
:1009A000001C0240003C0140426931EA020200D1D1
:1009B0000904816170470AB1816170470904FBE74E
:1009C00001488068704700000C00002002488168E0
:1009D00002781144816070470C0000200B4810B56C
:1009E000016841F400710160016841F480610160B7
:1009F000016841F480710160032000F08DF800204F
:100A000000F006F800F03EF8002010BD003C024067
:100A100010B5014688B000221E2000F05DF81E20AF
:100A200000F04CF813480024016841F00401016013
:100A3000006805A900F004000690684600F018F967
:100A400000F036F90C494000B0FBF1F10C480B4ABC
:100A5000491E026040F2E732C0E90324C0E90114F4
:100A600000F026FB10B1012008B010BD044800F0D2
:100A70003BFBF9E74038024040420F0000080040CD
:100A8000940100200C4882B0016841F4804101606B
:100A9000006800F4804000900748001F016841F0A2
:100AA000805101600068002200F0805000900F210A
:100AB000901E02B000F010B844380240002809DB54
:100AC00000F01F02012191404009800000F1E02068
:100AD000C0F8001170470000F0B40E4B1B680C46C4
:100AE000C3F30223C3F10705042D00D90425191D02
:100AF000072901D2002300E0DB1E012606FA05F1DA
:100B0000491E214099409E40761E16403143F0BC5C
:100B100001F089B80CED00E0064900F00702086812
:100B20004FF6FF03184040EA0220034A10430860D2
:100B3000704700000CED00E00000FA052DE9F047D9
:100B40000E46050065D0DFF81481D8F80000F7B232
:100B500000F00F00B04207D288F80070D8F800000B
:100B600000F00F00B04254D128683D4C810712D5E7
:100B7000400703D5206840F4E05020602878000743
:100B800003D5206840F4604020602068A96820F008
:100B9000F000084320602878C0072DD030496868ED
:100BA0000839012812D0022813D0032811D009686F
:100BB000890700292DDA216821F003010143216012
:100BC000FFF7FEFE814641F2883A0EE0096889038C
:100BD000EFE709688901ECE7FFF7F2FEA0EB0901F6
:100BE000514502D90320BDE8F0872068696800F00C
:100BF0000C00B0EB810FEFD1D8F80010404601F0A7
:100C00000F01B14207D90770006800F00F00B04231
:100C100001D00120E7E72878400705D52068E9687A
:100C200020F4E050084320602878000706D52068AB
:100C3000296920F4604040EAC100206000F058F8C3
:100C40002168084AC1F30311515CC8400649086095
:100C500006480068FFF7DCFE0020C4E7003C0240C5
:100C6000083802406E3400081800002010000020F0
:100C70000F2202600C4A136803F0030343601368F9
:100C800003F0F0038360136803F4E053C360126859
:100C90004FF4E05303EAD20202610448006800F016
:100CA0000F0008607047000008380240003C024016
:100CB0000448054900680968044AC1F38221515C6F
:100CC000C840704718000020083802407E340008F1
:100CD0000448054900680968044AC1F34231515C7F
:100CE000C840704718000020083802407E340008D1
:100CF000154810B5006810F00C02144813D04110CC
:100D0000042A0FD0082A0ED10F4C241F2268236812
:100D100002F03F025B0207D52068C0F38810A0FBF9
:100D2000010106E0084610BD2168C1F38811A1FB4E
:100D300000010023FFF7A6FA2168C1F30141491C15
:100D40004900B0FBF1F010BD083802400024F40067
:100D50002DE9F84F040076D02078DFF838A3CE4D87
:100D6000C00749D0DAF800105046C1F381010129CB
:100D700008D00068C0F3810002280AD1281D00684D
:100D8000400206D52868800336D560680028E2D086
:100D900032E06068B0F5803F10D0B0F5A02F286831
:100DA00010D020F480302860286820F4802028604B
:100DB0006068A0B1FFF704FE06460CE0286840F426
:100DC0008030F4E740F480202860F7E7FFF7F8FD73
:100DD000801B642873D828688003F7D50CE0FFF7E0
:100DE000EFFD064605E000BFFFF7EAFD801B642823
:100DF000F0D828688003F7D42078DFF8A082800735
:100E00004FF000093ED5DAF80010504611F00C0FF3
:100E100009D00068C0F3810002280BD19D48001F53
:100E20000068400206D42868800715D5E0680128CC
:100E300009D111E0E068B8B10120C8F80000FFF75F
:100E4000BFFD064605E020E1FFF7BAFD801B022842
:100E5000C0D828688007F7D52868216920F0F800F5
:100E600040EAC10028600DE0C8F80090FFF7A8FD37
:100E7000064604E0FFF7A4FD801B02281FD828685F
:100E80008007F7D42078000722D5824E8448616914
:100E90006C3671B101210160FFF792FD074604E055
:100EA000FFF78EFDC01B022809D830688007F7D5F0
:100EB0000EE0C0F80090FFF783FD074605E082E0F2
:100EC000FFF77EFDC01B02287DD830688007F7D46D
:100ED0002078400768D5DFF8BCB100270BF1380B4C
:100EE000DBF80000C0000BD4DBF8001041F08051AB
:100EF000CBF80010DBF80000012700F080500090D4
:100F0000684E3068C00510D4306840F4807030609E
:100F1000FFF756FD009005E0FFF752FD0099401ADB
:100F2000022850D83068C005F6D55A4EA0686836F9
:100F300001280FD00528306810D020F00100306063
:100F4000306820F004003060A068B8B1FFF738FDC9
:100F500000900FE0306840F00100F4E740F004003A
:100F60003060F7E7FFF72CFD0099411A41F2883015
:100F7000814266D830688007F4D50EE0FFF720FD87
:100F8000009007E0FFF71CFD0099411A41F28830FC
:100F9000814256D830688007F4D42FB1DBF80010B6
:100FA00021F08051CBF80010A069D0B3DAF800200E
:100FB0005146C2F38102022A4AD00228484607D08D
:100FC000C8F8600000E03CE0FFF7FAFC04463BE0B4
:100FD0004746C8F86000FFF7F3FC064605E000BF8F
:100FE000FFF7EEFC801B02282BD828688001F7D47D
:100FF000D4E907010843A16A2B4A490802EB0141E1
:10100000626A41EA8211084394F82C1040EA0161B7
:101010002048001F016001203866FFF7D1FC04461C
:1010200005E034E0FFF7CCFC001B022809D8286853
:101030008001F7D52BE000BFFFF7C2FC001B0228A0
:1010400002D90320BDE8F88F28688001F4D41EE09F
:101050000128F7D00868E26900F48001914214D1B8
:10106000226A00F03F0191420FD147F6C071626AD7
:101070000140914209D1A26A00F44031914204D169
:10108000E16A00F07060884201D00120DAE70020B8
:10109000D8E700000838024000380240000047420C
:1010A000800E4742007000400000FFFF704770470D
:1010B00010B5040003D094F83D0010B107E0012002
:1010C00010BD002084F83C00204600F00CF80220FF
:1010D00084F83D00211D206800F0C8FB012084F841
:1010E0003D00002010BD70470168CA6842F001024F
:1010F000CA600068816801F00701062903D0016811
:1011000041F00101016000207047704770B504464E
:10111000006801694FF00005C943890715D4C1680B
:10112000C943890711D4E91E016101202077206895
:1011300080698007204602D0FFF7E7FF04E000F057
:1011400098F8204600F096F8257720680169C94391
:10115000490717D4C168C943490713D46FF0040184
:101160000161022020772068806910F4407F2046CA
:1011700002D0FFF7CAFF04E000F07BF8204600F041
:1011800079F8257720680169C943090716D4C16831
:10119000C943090712D46FF00801016104202077C8
:1011A0002068C0698007204602D0FFF7AEFF04E048
:1011B00000F05FF8204600F05DF8257720680169AF
:1011C000C943C90617D4C168C943C90613D46FF00F
:1011D00010010161082020772068C06910F4407F69
:1011E000204602D0FFF791FF04E000F042F82046CD
:1011F00000F040F8257720680169C943C90708D184
:10120000C168C943C90704D1891E0161204600F0A5
:1012100033F820680169C943090609D4C168C94384
:10122000090605D46FF0800101612046FFF73EFFFB
:1012300020680169C943490609D4C168C943490600
:1012400005D46FF040010161204600F01FF82068CE
:101250000169C94389060BD4C168C943890607D40B
:101260006FF0200101612046BDE87040FFF71FBF0D
:1012700070BD70477047000000680349884201D183
:10128000FFF7A4BB7047000000080040704770B52E
:1012900004460068C16821F0C001C160206841694E
:1012A0004FF0000509060FD5416921F08001416129
:1012B000206B48B10565206BFFF7CCF820B1206B9F
:1012C000FFF721F9202805D0E584202084F8390093
:1012D000002070BD1020E063032070BD10B5054AEA
:1012E0000168914204D1FFF7D2FF03490120087041
:1012F00010BD0000001001400000002010F8391F50
:10130000407808437047000070B5026804461068D2
:10131000D168536910F00F0F52D003F0010501F4AA
:1013200090762E435FD0C20705D0CA0503D5E26B85
:1013300042F00102E263420705D5DA0703D0E26B0F
:1013400042F00202E263820705D5DA0703D0E26BBE
:1013500042F00402E263020707D501F020022A43AB
:1013600003D0E26B42F00802E263E26B002A33D062
:10137000800604D5880602D5204600F03BFB206895
:101380004069E16BC0F38010090700D428B3204600
:1013900000F019FB2068416949061AD5416921F01E
:1013A00040014161606BA0B11B490165606BFFF7B3
:1013B00098F8002810D0606B016DBDE870400847B8
:1013C000830610D58B060ED52046BDE8704000F090
:1013D00011BB2046FFF782FF70BD2046FFF77EFF5E
:1013E0000020E06370BD030606D50B0604D5204639
:1013F000BDE8704000F0DEBB4006F3D54806F1D5ED
:10140000D168204621F04001D160202184F83910B4
:1014100000F0F4F870BD00003519000870B5040044
:1014200004D094F83900002510B106E0012070BD09
:1014300084F83850204600F023F8242084F839003E
:101440002068C16821F40051C160204600F01EFBF5
:101450002068016921F4904101612068416921F00F
:101460002A0141612068C16841F40051C160E5630F
:10147000202084F8390084F83A00002070BD000074
:101480002DE9F04186B0064614216846FEF744FF78
:1014900034493068884262D133480024016841F001
:1014A00010010160006800F0100005902E4814380B
:1014B000016841F0010101600068694600F0010027
:1014C00005904FF4C060009002200190012002902E
:1014D00003200390072004902448FFF789F9254D45
:1014E00023484FF000672860C5E901744FF4806815
:1014F000C5E903486C61AC61EC612C6228466C6202
:10150000FFF7D4F808B1FEF7A4FF7563AE63194D79
:10151000174860357830E5E802074020A5E811015A
:10152000144845F814496030AC61EC612C626C627F
:10153000FFF7BCF808B1FEF78CFF356300220521E8
:101540002520AE63FFF7C8FA2520FFF7B7FA00227F
:1015500005212520FFF7C0FA2520FFF7AFFA06B0D6
:10156000BDE8F08100100140443802400000024014
:1015700040640240D40000207047000070B504466B
:1015800090F83900202830D169B362B394F838005C
:1015900001282AD0012084F838002162A284E28444
:1015A0000025E563212084F83900236B1048D863B7
:1015B000236B10481864236B0F48D864206B1346C4
:1015C00005652668206B321DFFF7DAF821686FF099
:1015D0004000086084F838502068416941F080017B
:1015E0004161002070BD012070BD022070BD00006F
:1015F0008F190008BD190008451900080068034943
:10160000884202D102490120087070470010014051
:10161000000000207047FEE70D4808B5016841F45E
:10162000800101600068002200F480000090052124
:101630003A20FFF751FA3A20FFF740FA002205213D
:101640004620FFF749FABDE808404620FFF736BAC2
:101650003038024010B592B000F02EFB24220C4925
:101660006846FEF740FE6A4600210A4800F060FB2B
:10167000094C07492422A060243109A8FEF733FE53
:1016800009AA0021054800F053FB606012B010BDAC
:10169000103400084D170008000000206D170008E6
:1016A00070B586B014216846FEF736FE1648002451
:1016B000016841F004010160016801F00401059135
:1016C000016841F080010160016801F0800105912D
:1016D000016841F00101016000680C4E00F001005A
:1016E0004FF400550590002229463046FFF763F974
:1016F00001200095CDE90104694630460394FFF7C7
:1017000077F806B070BD0000303802400008024093
:101710000C4810B50A4901604FF4E13141600021E5
:1017200081600C22C160C0E904128161C161FFF7D0
:1017300075FE002803D0BDE81040FEF78ABE10BD3C
:101740000010014094000020FEE77047064D4FF462
:1017500000544FF4FA7621462846FFF725F9304623
:1017600000F090FAF7E70000000802404FF47A74A6
:101770000648FFF7C3FD202804D10D220449034881
:10178000FFF7FCFE204600F07DFAF1E79400002010
:101790005834000810B5502080F31188BFF34F8FE4
:1017A000BFF36F8F01F092FC18B104494FF08050E5
:1017B0000860002080F3118810BD000004ED00E0F7
:1017C00030B593B030216846FEF7A6FD14210CA871
:1017D000FEF7A2FD19480025016841F08051016023
:1017E000006800F0805011901548016841F4804174
:1017F00001600068022400F48040119001200390F1
:1018000010200490009406940820CDE90750A820E9
:10181000CDE9090404200B906846FFF799FA0CA95A
:101820000F2081E831004FF4A0500F90E00210909B
:1018300005210CA8FFF782F913B030BD40380240F3
:10184000007000400548016841F4700101600349DF
:101850004FF00060803908607047000088ED00E0BC
:101860000148FFF753BC000094010020F0B5026866
:10187000254C264D264E274F274B4FF0804CA0423B
:1018800009D0604507D0A84205D0B04203D0B84285
:1018900001D0984204D122F0700E4A6842EA0E024A
:1018A000A0421BD0604519D0A84217D0B04215D035
:1018B000B84213D0984211D0184DA8420ED0184DFE
:1018C000A8420BD0174DA84208D0174DA84205D00A
:1018D000164DA84202D0164DA84203D122F44075FD
:1018E000CA682A434D6922F080022A4302608A684E
:1018F000C2620A688262A04201D0984201D109699D
:10190000016301214161F0BD00000140000400407D
:1019100000080040000C004000040140004001406D
:10192000004401400048014000180040001C0040F5
:101930000020004010B5806B0021C185C184FFF7F5
:10194000CDFC10BD70B5846B2068406994F83910E7
:10195000C0F3C0100025212904D118B1E584204628
:1019600000F03FF82068406994F83A10C0F3801006
:10197000222904D118B1E585204600F024F8E06B57
:1019800040F01000E0632046FFF7A8FC70BD10B5E2
:101990000146806B09680968C9050CD40021C1841F
:1019A00001684A6922F080024A610068C16841F01A
:1019B0004001C16010BDFFF721FE10BD10B5806B66
:1019C000FFF728FE10BD0168CA6822F49072CA6051
:1019D00001684A6922F001024A61202180F83A1028
:1019E00070470168CA6822F0C002CA60202180F8EE
:1019F0003910704710B590F83A10222901D0022012
:101A000010BD8168B1F5805F11D0016900290168BE
:101A10001FD0496801F07F03816A4A1C82620B7003
:101A2000C18D491E0904090CC18518D02BE002693B
:101A3000816A002A0268526805D0D2B20A80816A9F
:101A4000491C8162ECE7C2F308020A80816A891CA2
:101A5000F7E74A68816A4B1C83620A70E0E7016815
:101A6000CA6822F02002CA600168CA6822F4807243
:101A7000CA6001684A6922F001024A61202180F8A7
:101A80003A10FFF779FD002010BD00002DE9F0416C
:101A9000044600680169E26821F440511143016184
:101AA0002169A068E269084361691143084321681C
:101AB000CA6849F20C639A430243CA6020684169CC
:101AC000A26921F4407111434161E069192764253D
:101AD0003226B0F5004F354A354920684FF00008EE
:101AE00006D0884201D0904236D1FFF7F1F835E0B8
:101AF000884201D0904202D1FFF7EAF801E0FFF7F7
:101B0000D7F861684A18A0FB070148EB0803FEF705
:101B1000B9FB0146B0FBF5F00201B1FBF5F06FF047
:101B20001803584301EB800006EBC000B0FBF5F052
:101B300000F0F80002EB4002B1FBF5F0584301EB76
:101B4000800006EBC000B0FBF5F000F00700216854
:101B500010448860BDE8F081FFF7AAF861688B0F38
:101B60008A00A0FB0701FEF78DFB0146B0FBF5F0F4
:101B70006FF01802504301EB800006EB0010B0FB41
:101B8000F5F000F0F002B1FBF5F002EB0012B1FB52
:101B9000F5F06FF01803584301EB800006EB0010DE
:101BA000B0FBF5F000F00F00D1E700000014014099
:101BB0000010014090F83910212901D0022070470F
:101BC0008168B1F5805F016A0BD04A1C026202682D
:101BD00009785160C18C491E0904090CC1840ED0DA
:101BE00017E009880268C1F3080151600169002902
:101BF000016A02D0491C0162ECE7891CFBE701681D
:101C0000CA6822F08002CA600068C16841F04001E1
:101C1000C1600020704700000148FFF775BB00005D
:101C200094000020FEE70907090E002804DB00F1FC
:101C3000E02080F80014704700F00F0000F1E02071
:101C400080F8141D704702E008C8121F08C1002A5E
:101C5000FAD170477047002001E001C1121F002A2D
:101C6000FBD17047FEF7BAFEFFF7AAFDFFF718FD9C
:101C7000FFF7D2FCFFF74CFDFFF7ECFC00F038F863
:101C8000FEE7000010B5EFF3058149B9EFF31081CD
:101C900031B908490968022905D1EFF3118111B161
:101CA0006FF0050403E0002408B100F0E7FD2046D2
:101CB00010BD00006C000020EFF3058058B9EFF371
:101CC000108040B909490868022801D030B109E004
:101CD000EFF3118030B16FF005007047012008600C
:101CE000002070474FF0FF30704700006C0000206C
:101CF00010B5EFF3058060B9EFF3108048B90B49D8
:101D00000868022802D0012806D00BE0EFF311800A
:101D100040B16FF0050010BD0220086000F016FE13
:101D2000002010BD4FF0FF3010BD00006C000020FF
:101D3000F0B585B04FEA01034FF00004EFF30581E1
:101D40000394A1BBEFF3108189BB214909680229E3
:101D500002D1EFF3118151BB48B3802618218DF8D1
:101D6000104004AD42B3176807B13D4697691FB1F3
:101D700039467F1E382F02D21779FF0702D0002084
:101D800005B0F0BD576907B1BE08D2F808C0BCF174
:101D9000000F0DD0D4685C2C18D312693AB137B15A
:101DA0008DE806103246294601F051F903900DE006
:101DB000D7685FB912694AB903AACDE90012B2B275
:101DC000294601F017F9012800D003940398D7E7BA
:101DD0006C0000202DE9F041134C0F460546666962
:101DE0002068001D00F01AFC681C07D137B121687B
:101DF000BDE8F0410D48091D00F060BC2068354485
:101E0000B5424560216805D2A068BDE8F041091DD2
:101E100000F03CBC6068091D00F038FC206B854276
:101E200000D22563BDE8F0811C000020C40600201C
:101E30002DE9F041054600F04DFC2D4C2069401C79
:101E4000206120682B4F10B1E06930B32BE0256092
:101E50002069012827D1002606EB860007EB8000C9
:101E600000F006FC761C382EF6D3234800F000FC68
:101E70002148143000F0FCFB1F48283000F0F8FB2C
:101E80001D483C3000F0F4FB1B48503000F0F0FBE4
:101E9000194860601430A06005E02068E96AC06AF3
:101EA000884200D82560E06A401CE0626864E86A05
:101EB000A169884200D9A06100EB800007EB800097
:101EC000291D00F0FBFB00F025FCE06900280CD088
:101ED0002068E96AC06A884207D208494FF08050FA
:101EE0000860BFF34F8FBFF36F8FBDE8F081000034
:101EF0001C000020140200207406002004ED00E005
:101F000038B500F0E7FB104CA068C8B90F4800F0E6
:101F1000AFFB0E48143000F0ABFB0C4820601430CF
:101F200060600A4B00202833009003F1500210211A
:101F30000A2000F003FEA06010B105A100F068FCCB
:101F4000BDE8384000F0E6BB58000020D80600206D
:101F5000546D72510000000030B4026C0B46002A30
:101F60000BD0C1681144C1604468A14201D301682B
:101F7000C16030BC1846FEF7B6B930BC70472DE9D9
:101F8000F041856B174604460026026C82B1C7B14A
:101F9000E068FEF7A8F9E168206C091AE1602268A0
:101FA000914202D26168081AE060022F16D017E051
:101FB0002068A8B9606801F0EDF80646002060606E
:101FC0000EE0A068FEF78FF9216CA0680844A060BD
:101FD0006168884204D32068A06001E005B16D1EED
:101FE0006D1CA5633046BDE8F08110B5044690F83D
:101FF000590058B101280CD002280FD0502080F38E
:102000001188BFF34F8FBFF36F8FFEE7206B00F097
:1020100095FB2046BDE8104000F090BB10BD0000CD
:1020200010484FF47051420706D0C01D0D4920F0F2
:102030000700411AC1F570510B4A00230144C2E95F
:1020400000030839103A21F0070111604B600B6062
:102050000B1AC0E9001393604FF000405360D0604A
:1020600070470000A80E002080000020144E154C80
:10207000A6F29C474FF08058DFF84C9012E000BF6A
:1020800000F028FBF068C568281D00F0C7FA206939
:10209000401E2061E068401EE06000F03BFB2846E7
:1020A000FFF7A3FFE0680028EAD138680128F9D9D2
:1020B000C9F80080BFF34F8FBFF36F8FF2E70000C6
:1020C000B00600201C00002004ED00E070B51D46A5
:1020D000049C51B1C4F80020C4E90F01012120463D
:1020E00000F060FD84F84C5070BD2460F4E72DE9E9
:1020F000F0470E46DDE9098417468246910099466D
:10210000089DA522206BFEF700F96FF00301206BFC
:1021100001EB8701084420F00707780707D050201B
:1021200080F31188BFF34F8FBFF36F8FFEE7221844
:10213000315C82F83410315C11B1401C1028F6D3A8
:10214000002684F84360382D00D33725E562C4E9C2
:102150001356201D00F097FA04F1180000F093FACE
:102160002461C5F138006462A061666584F8586036
:102170004A465146384600F03BFA2060B8F1000F5D
:1021800001D0C8F80040BDE8F087000030B5114923
:1021900000E011460A688242FBD34B685C18844217
:1021A00003D1406818444860084643681C189442AC
:1021B00009D1084C103C2468A24209D052681A4444
:1021C00042600A6812680260814200D0086030BD37
:1021D0000460F9E78000002070B5002441600B4DD9
:1021E0000061914206D8D11A8269914206D2011D3E
:1021F000686807E09A4203D2994201D3012403E0C0
:10220000011D286800F042FA204670BD58000020E9
:1022100010B5044600F05EFAA06B28B15FF0000430
:1022200000F078FA204610BD0124F9E730B589B0F6
:10223000304D55E00498002806DADDE90601059ADC
:102240009047049800284BDB069C606910B1201D64
:1022500000F0E4F902A800F0B9F8024604980A2850
:102260003ED2DFE800F00505053D263705053D2691
:102270000598A169034601442046FFF7ADFF00B36E
:10228000616A20468847E069012829D10020009032
:102290000598A169002342181946204601F084F8E8
:1022A00078B9502080F31188BFF34F8FBFF36F8F41
:1022B000FEE70598A06128B1811813462046FFF774
:1022C0008BFF0DE0502080F31188BFF34F8FBFF3D9
:1022D0006F8FFEE794F82C0010B9204600F02EFA1C
:1022E000002204A9A86800F0AFFD0028A2D109B01F
:1022F00030BD0000580000202DE9FC410F46054686
:1023000000F068FB01A800F061F80446019818B1DC
:1023100000F0B8FFBDE8FC81224EAFB170680068E4
:10232000A8B30027291B3A46B06800F085FA00F0F0
:10233000A9FF0028EED11C494FF080500860BFF380
:102340004F8FBFF36F8FE5E7A542EBD800F09AFF00
:1023500030682746C068C468201D00F05FF9E06956
:10236000012810D1A0692B4641193A462046FFF7B3
:1023700033FF40B100200346014600902A46204624
:1023800001F012F820B1616A20468847C2E707E0F1
:10239000502080F31188BFF34F8FBFF36F8FFEE79C
:1023A0000127BFE75800002004ED00E0064841681F
:1023B000096829B14168C968C968496801637047FB
:1023C0004FF0FF31FAE700001C00002070B5054611
:1023D00000F076FE064E04463069844203D200F0D7
:1023E00009F8012000E0002028602046346170BD1B
:1023F00058000020F8B5194D1FE0C068C468066891
:10240000201D00F00BF9616A20468847E069012829
:1024100013D1A0693044B04206D924616060211D07
:10242000286800F033F908E00020034601460090D8
:102430003246204600F0B8FF38B12868016800290C
:10244000DBD16968C5E90010F8BD502080F3118820
:10245000BFF34F8FBFF36F8FFEE7000058000020DF
:1024600008484068401C4FF0500080F3118804D0A9
:10247000BFF34F8FBFF36F8FFEE7BFF34F8FBFF3F5
:102480006F8FFEE788000020074C2068016841B18B
:10249000C0680021D0F80000FFF72EFFFFF7C6FE4E
:1024A000F3E701210020F7E7580000202DE9F04173
:1024B000044600F00FF994F9455004F1240609E0B0
:1024C000606A48B1304600F0A5FE08B100F004FA99
:1024D0006D1E6DB2002DF3DC4FF0FF3684F84560C1
:1024E00000F018F900F0F6F894F9445004F11007E0
:1024F00009E0206948B1384600F08CFE08B100F0D0
:10250000EBF96D1E6DB2002DF3DC84F84460BDE87C
:10251000F04100F0FFB800002DE9F041054600272A
:1025200000F058FA314E306808B9FFF779FDF068CD
:1025300005424BD1C5B3083568070ED005F007003A
:10254000C0F108000544680707D0502080F31188C7
:10255000BFF34F8FBFF36F8FFEE72DB370688542D7
:1025600034D82248103001460C6801E020460C4661
:102570006168A94202D221680029F7D131688C42F2
:1025800024D007682168016060680837411B102962
:102590000FD96019420708D0502080F31188BFF38B
:1025A0004F8FBFF36F8FFEE710E041606560FFF76C
:1025B000EDFD61687068401A7060B268904200D2A8
:1025C000B060F06801430020C4E9000100F05AFE49
:1025D000780707D0502080F31188BFF34F8FBFF3E7
:1025E0006F8FFEE73846BDE8F081000070000020E4
:1025F00010B5031F4FF080741C601B1F21F00101F8
:102600001960191F044B0B6014390A60091F6FF021
:10261000020244380A6010BD61240008D0E901328A
:1026200001699A60D0E901235A604A68824201D167
:1026300082684A60002202610868401E08600868DB
:1026400070470000034B036003F15C0008608020CA
:1026500010607047F0070020044B036003F15C003A
:1026600008604FF480701060704700004C0A002032
:1026700000F108014FF0FF32C0E90112C1600161B1
:1026800000210160704700210161704730B50B687F
:102690005A1C02D000F1080202E0026904E022465E
:1026A000546825689D42FAD953684B6099608A60E6
:1026B000516008610168491C016030BD42684A6090
:1026C00093688B6093685960916008610168491C48
:1026D00001607047502080F31188BFF34F8FBFF324
:1026E0006F8F0A494868401C486001280CD108488F
:1026F000006810F0FF0F07D0502080F31188BFF35F
:102700004F8FBFF36F8FFEE77047000088000020F7
:1027100004ED00E00849486828B1401E486001D136
:1027200080F311887047502080F31188BFF34F8FDA
:10273000BFF36F8FFEE700008800002070B500280F
:1027400027D0144DA0F108046168E868014207D160
:10275000502080F31188BFF34F8FBFF36F8FFEE7D8
:1027600022683AB1502080F31188BFF34F8FBFF336
:102770006F8FFEE78143616000F02CF96068696843
:10278000084468602046FFF701FDBDE8704000F096
:1027900079BD70BD700000204FF0E0200021016184
:1027A000816105494FF47A720968B1FBF2F1491E63
:1027B00041610721016170471800002010B5FDF745
:1027C0004BFD114910280ED300F1E02090F8F003E2
:1027D0000A78904207D2502080F31188BFF34F8FC0
:1027E000BFF36F8FFEE709480068896800F4E06076
:1027F000884207D9502080F31188BFF34F8FBFF371
:102800006F8FFEE710BD0000880000200CED00E097
:1028100010B5084B002200BF53F832401CB1521CC7
:10282000082AF9D310BD43F8321003EBC201486007
:1028300010BD0000D401002070B515460E460446B8
:10284000FFF748FF94F944100020491C01D184F897
:10285000440094F94510491C01D184F84500FFF764
:1028600059FFA06B28B92A46314604F1240000F034
:1028700051F82046BDE87040FFF718BE10B50200C1
:1028800014D00F48806B38B1502080F31188BFF30B
:102890004F8FBFF36F8FFEE700F09CF800211046CA
:1028A000FFF798FA00F0EEFC002807D105494FF039
:1028B00080500860BFF34F8FBFF36F8F10BD0000D3
:1028C0001C00002004ED00E002498A6A02604969A8
:1028D000416070471C000020014901204862704798
:1028E0001C00002010B50C4650B109490968183188
:1028F000FFF7CCFE2046BDE810400121FFF76ABA81
:10290000502080F31188BFF34F8FBFF36F8FFEE726
:102910001C00002070B514460D4668B10A490968CC
:102920001831FFF7CBFE0CB14FF0FF35214628469A
:10293000BDE87040FFF74EBA502080F31188BFF316
:102940004F8FBFF36F8FFEE71C00002030B587B0BC
:102950000024039405AA04A903A80494FFF772FEB7
:10296000DDE903010094CDE90110002315A117480A
:10297000059A00F06CFB164D002868631FD000F02C
:10298000E3FC012809D0401C19D1502080F31188A4
:10299000BFF34F8FBFF36F8FFEE7502080F3118896
:1029A000BFF34F8FBFF36F8F4FF0FF3028630120CD
:1029B000E8616C6107B0BDE8304000F045B807B091
:1029C00030BD000049444C45000000006D20000867
:1029D0001C0000200248816B491C81637047000085
:1029E0001C000020164810B5816B11B10121416215
:1029F00010BD002141628169124A01E0B9B1491E4E
:102A000001EB810352F82330002BF7D001EB810357
:102A100002EB830202F1080453685B685360A3422F
:102A200001D15B685360DA680260816110BD50209B
:102A300080F31188BFF34F8FBFF36F8FFEE7000065
:102A40001C000020140200201CB537480168374ADA
:102A5000914207D1502080F31188BFF34F8FBFF30D
:102A60006F8FFEE700683149491E884207D1502028
:102A700080F31188BFF34F8FBFF36F8FFEE72C49B0
:102A800008780190FF20087008788DF800009DF804
:102A900000009DF8002000F0F000904207D0502088
:102AA00080F31188BFF34F8FBFF36F8FFEE79DF860
:102AB0000000204B00F0500018700720986005E0DF
:102AC0009DF8002052008DF80020401E9DF8002047
:102AD0001206F5D49860032807D0502080F311889F
:102AE000BFF34F8FBFF36F8FFEE74FF440709860D6
:102AF000019808700C482030016841F470010160B1
:102B0000016841F070410160FFF746FE0020586007
:102B1000FDF76AFB0848016841F040410160FDF79C
:102B20004FFB00201CBD000000ED00E071C20F4112
:102B300000E400E08800002034EF00E038B5049D98
:102B400018B153B1CAB181B120E0502080F311888F
:102B5000BFF34F8FBFF36F8FFEE7502080F31188D4
:102B6000BFF34F8FBFF36F8FFEE7502080F31188C4
:102B7000BFF34F8FBFF36F8FFEE739B1502080F363
:102B80001188BFF34F8FBFF36F8FFEE750241C46B1
:102B9000012384F846302B460094FFF797FA20462D
:102BA00038BD000070B50D46040025D0FFF792FD3A
:102BB000D4E90F20216802FB001161600021A163AC
:102BC0002168A1600A46D4E90F01401E00FB0121E3
:102BD000E16021464FF0FF3001F8440F487004F1E6
:102BE00010008DB1FFF744FD04F12400FFF740FD14
:102BF000FFF790FD012070BD502080F31188BFF3D6
:102C00004F8FBFF36F8FFEE721690029F0D000F0EE
:102C100001FB0028ECD004494FF080500860BFF35E
:102C20004F8FBFF36F8FE3E704ED00E02DE9FF471F
:102C300082B01D468A464FF00008040003D0BAF166
:102C4000000F08D011E0502080F31188BFF34F8FA0
:102C5000BFF36F8FFEE7206C38B1502080F31188EE
:102C6000BFF34F8FBFF36F8FFEE7022D0AD1E06BEA
:102C7000012807D0502080F31188BFF34F8FBFF396
:102C80006F8FFEE700F00EFA3F4F4FF000094FF054
:102C9000805648B9049838B1502080F31188BFF3AA
:102CA0004F8FBFF36F8FFEE7FFF714FDA06BE16B53
:102CB000884207D3022D05D00498D0B1B8F1000F97
:102CC0001AD01EE02A4651462046FFF758F9616A9D
:102CD00019B104F1240000F09DFA20B13E60BFF369
:102CE0004F8FBFF36F8FFFF715FD012006B0BDE8D2
:102CF000F087FFF70FFD22E06846FFF7E5FD4FF094
:102D00000108FFF707FDFFF765FEFFF7E3FC94F905
:102D10004400401C01D184F8449094F94500401CC3
:102D200001D184F84590FFF7F5FC04A9684600F04E
:102D300027F930B12046FFF7B9FB00F0A3FA0020D5
:102D4000D4E7FFF7C7FCA06BE16B884213D1FFF714
:102D5000E1FC04F110000499FFF7C4FD2046FFF7E1
:102D6000A5FB00F08FFA00289ED13E60BFF34F8F85
:102D7000BFF36F8F98E7FFF7CDFC2046FFF796FB78
:102D800000F080FA90E7000004ED00E02DE9F04744
:102D90001F4690468946040003D0B9F1000F08D0C1
:102DA00011E0502080F31188BFF34F8FBFF36F8F76
:102DB000FEE7206C38B1502080F31188BFF34F8FAD
:102DC000BFF36F8FFEE7022F0AD1E06B012807D017
:102DD000502080F31188BFF34F8FBFF36F8FFEE752
:102DE000FFF7ECFC5020EFF3118680F31188BFF35E
:102DF0004F8FBFF36F8FA06BE16B884206D3022F1A
:102E000004D0002086F31188BDE8F08794F945507E
:102E10003A4649462046FFF7B2F8681C04D06D1CBC
:102E200084F845500120EDE7606A0028FAD004F1EB
:102E3000240000F0EFF90028F4D0B8F1000FF1D031
:102E40000121C8F80010EDE72DE9F747002683B00F
:102E50008A46040003D0BAF1000F08D011E05020D8
:102E600080F31188BFF34F8FBFF36F8FFEE7206CA5
:102E700038B1502080F31188BFF34F8FBFF36F8FAD
:102E8000FEE700F00FF9DFF8F4804FF000094FF093
:102E9000805748B9059838B1502080F31188BFF3A6
:102EA0004F8FBFF36F8FFEE7FFF714FCA56BC5B123
:102EB00051462046FFF750F86D1EA563206950B1BA
:102EC00004F1100000F0A6F928B1C8F80070BFF3B3
:102ED0004F8FBFF36F8FFFF71DFC012006B0BDE8D9
:102EE000F087059808B11EB106E0FFF713FC27E054
:102EF0006846FFF7E9FC0126FFF70CFCFFF76AFDC7
:102F0000FFF7E8FB94F94400401C01D184F8449099
:102F100094F94500401C01D184F84590FFF7FAFB75
:102F200005A9684600F02CF8002820460AD0FFF7D3
:102F3000BDFA00F0A7F92046FFF76AF90028B3D0E0
:102F40000020CBE7FFF764F990B104F12400059964
:102F5000FFF7C8FC2046FFF7A9FA00F093F9002814
:102F6000A2D1C8F80070BFF34F8FBFF36F8F9BE7FC
:102F70002046FFF79BFA00F085F995E704ED00E0A5
:102F80002DE9F0410C46050011D0C4B1FFF7A2FBBA
:102F9000174B5A696E682068911B471C17D02F6821
:102FA0009B6A9F4219D0964217D8012410E0502006
:102FB00080F31188BFF34F8FBFF36F8FFEE7502070
:102FC00080F31188BFF34F8FBFF36F8FFEE70024AC
:102FD000FFF7A0FB2046BDE8F081884205D9401AE2
:102FE00020602846FFF770FCF1E700202060DCE756
:102FF0001C0000202DE9FF5F8346DDE90E8799461E
:1030000016468A469000FFF787FA05001CD05C2020
:10301000FFF782FA040014D00020256384F85900D9
:10302000CDE90240CDE900874B463246514658462D
:10303000FFF75DF82046FEF7FBFE012004B0BDE877
:10304000F09F2846FFF77AFB4FF0FF30F6E7F0B528
:1030500085B0DDE90B640A9DA6B1DCB15C27009761
:103060002663022684F85960002604AFCDE90246A3
:10307000CDE90057FFF73BF82046FEF7D9FE04984C
:1030800005B0F0BD502080F31188BFF34F8FBFF320
:103090006F8FFEE7502080F31188BFF34F8FBFF38F
:1030A0006F8FFEE70548C16919B1806B18B1002028
:1030B0007047012070470220704700001C0000206C
:1030C00001484069704700001C0000202DE9F041D4
:1030D0002E4C0027A06B40B1206A401C2062606A21
:1030E00000B101273846BDE8F0816669761C66614B
:1030F00013D16068006838B1502080F31188BFF3A5
:103100004F8FBFF36F8FFEE76068A1686160A060BA
:10311000A06A401CA062FFF749F9206BDFF87080BD
:10312000864209D36068006880B16068C068C5687D
:10313000686886420DD220632068C06A00EB800177
:1031400058F821000128CAD90127C8E74FF0FF30FD
:10315000F1E7281DFFF762FAA86A18B105F1180017
:10316000FFF75CFAE86AA169884200D9A06100EB28
:10317000800108EB8100291DFFF7A0FAE86A2168A9
:10318000C96A8842CED30127CCE700001C0000208A
:103190001402002070B504004FF0000133D01B4D25
:1031A0002868844207D0502080F31188BFF34F8FE6
:1031B000BFF36F8FFEE7206D38B1401E2065E36CD2
:1031C000E26A9A421FD040B11DE0502080F311887E
:1031D000BFF34F8FBFF36F8FFEE7201DFFF71EFA7F
:1031E000E06CE062C0F13800A061E06AA969884241
:1031F00000D9A861064900EB800001EB8000211D89
:10320000FFF75CFA0121084670BD00001C00002099
:103210001402002070B5C068C46854B104F11800ED
:103220000646FFF7FBF9144DA86B50B13146134821
:1032300015E0502080F31188BFF34F8FBFF36F8FDD
:10324000FEE7201DFFF7EAF9E06AA969884200D984
:10325000A8610B4900EB800001EB8000211DFFF706
:103260002DFAE06A2968C96A884202D90120686299
:1032700070BD002070BD00001C0000209C060020D6
:10328000140200202DE9F0472C4D00242746A86B9E
:1032900038B1FFF71FFAA86B401EA863A86B40B1B6
:1032A00046E0502080F31188BFF34F8FBFF36F8F3C
:1032B000FEE72969224E0120D1B3A6F59169804627
:1032C0003068E0B1F068C46804F11800FFF7A6F9AF
:1032D000201DFFF7A3F9E06AA969884200D9A86117
:1032E00000EB800109EB8100211DFFF7E7F9E06A9F
:1032F0002968C96A8842E3D3C5F82480E0E70CB1A5
:10330000FFF754F82C6A4CB14FEA0806FFF7DEFECF
:1033100000B16E62641EF9D100202862686A38B17B
:103320000849012738070860BFF34F8FBFF36F8F3D
:10333000FFF7F0F93846BDE8F08700001C000020D8
:103340009C06002004ED00E010B586B0FEF7D8FD25
:10335000114CA068B8B100200390049005AA04A9FC
:1033600003A8FFF779F9DDE9032102208DE80700C2
:1033700000230AA10B48059AFFF769FEE06010B12F
:1033800006B0012010BD502080F31188BFF34F8F8D
:10339000BFF36F8FFEE7000058000020546D7220CD
:1033A00053766300892400082DE9FF411E46134629
:1033B00002000A9D4FF0000016D0144CA768002FA1
:1033C0000FD0CDE900130292062917DAFFF76AFE43
:1033D00002284FF000030FD000226946A068FFF7D3
:1033E00025FC04B0BDE8F081502080F31188BFF3C4
:1033F0004F8FBFF36F8FFEE72A46EEE7002332467A
:1034000069463846FFF7C2FCEBE700005800002091
:1034100094340008000000000000000000000000DC
:103420000000000080000000180000000000000004
:1034300000000000883400080000000000000000C8
:103440000000000000000000000100001800000063
:10345000000000000000000048656C6C6F20576F92
:10346000726C640D0A0000061016000610160000AB
:103470000000000000000102030406070809000024
:10348000000001020304000075736172743154611D
:10349000736B000064656661756C745461736B00D6
:1034A000C03400080000002094000000461C000802
:1034B0005435000894000020144E0000561C0008EB
:1034C00001000000000000000000000001000000FA
:1034D00010000000000000000024F40000000000C4
:1034E00000000000000000000000000000000000DC
:1034F00000000000000000000000000000000000CC
:1035000000000000000000000000000000000000BB
:1035100000000000000000000000000000000000AB
:10352000000000000000000000000000000000009B
:10353000000000000000000000000000000000008B
:10354000000000000000000000000000AAAAAAAAD3
:043550000000000077
:040000050800018965
:00000001FF
